:020000001628C0
:0E0006008312031323088A00220882000800D8
:1000140003208A110A128000840AA20A0319A30A7F
:08002400F003031D0A28080087
:10002C0083120313A001A1013F30A4000030A500EE
:10003C000630A6000030A7005B30A8000030A900F5
:10004C004F30AA000030AB006630AC000030AD0081
:10005C006D30AE000030AF007C30B0000030B1002D
:10006C000730B2000030B3007F30B4000030B50070
:10007C006730B6000030B700831686018312860104
:10008C0007309F002008F0002108F100F00DF10D61
:10009C0070107008243E840000088600A00A031922
:1000AC00A10A00302106031D5D280A302006031D1D
:1000BC006128A001A1018230FC00DD30FD00FD0BA8
:0E00CC006528FC0B65280000000048286C2801
:02400E006A2125
:00000001FF
