:020000004F2887
:100006008312031385182828051585110330FB0074
:100016008A30FC005530FD00FD0B0F28FC0B0F2825
:10002600FB0B0F2800000000051185150330FB00AF
:100036008A30FC005530FD00FD0B1F28FC0B1F28E5
:0C004600FB0B1F2800000000072808002A
:100052008312031305184E28051185110330FB0086
:100062008A30FC005530FD00FD0B3528FC0B35288D
:10007200FB0B352800000000051585150330FB0039
:100082008A30FC005530FD00FD0B4528FC0B45284D
:0C009200FB0B4528000000002D28080092
:10009E000730831203139F0003308316850003304D
:0C00AE00831285000320292059285C28BB
:02400E006A2125
:00000001FF
