:02000000422894
:0C00060007308312DD00DD0B0628080027
:0C001200831224088A00230882000800E2
:10001E0009208A110A128000840AA30A0319A40A6D
:08002E00D003031D0F28080098
:10003600C33083129F05F0309F052009D000500879
:100046009F05F03083169F0483129F172508D00062
:10005600D00D5010D00D501050089F041F140320CF
:100066009F149F1C3828000034281F101E08D1003A
:0E007600D00183161E08D0040030D10408000B
:10008400BE20013083169F00013083129F00073089
:10009400990001308316850083128501A5011B2078
:1000A4005008A1005108A2008030D20080305106CF
:1000B4005202031D5F285008003C0318662883126F
:1000C40085100511051285128030D000803022067B
:1000D4005002031D6F282108CC3C03187628831294
:1000E40085140511051285128030013AD000803044
:1000F40022065002031D80282108983C03188728F3
:10010400831285140515051285128030023AD00039
:10011400803022065002031D91282108643C0318F4
:100124009828831285140515051685128030033A24
:10013400D000803022065002031DA2282108303C42
:100144000318A9288312851405150516851682300F
:10015400DC00DD30DD00DD0BAD28DC0BAD2800005C
:0601640000005028B42841
:10017C002030840003308312D000BA30A30000304A
:06018C00A4000F20080092
:02017400403415
:04017600003400341D
:02400E00D431AB
:00000001FF
