:0200000048288E
:100006008312031306101830FC005F30FD00FD0B51
:100016000A28FC0B0A2806140330FC009730FD0062
:0E002600FD0B1328FC0B13280000000008003F
:100034008312031306101930FC000530FD00FD0B7C
:100044002128FC0B212806140230FC00F130FD00AD
:0E005400FD0B2A28FC0B2A28000000000800E3
:100062008312031306101930FC00AB30FD00FD0BA8
:100072003828FC0B38280000000006140230FC006F
:0E0082004B30FD00FD0B4328FC0B432808000B
:100090000730831203139F00033083168500860107
:1000A000033083128500860185185A28051C5A28BA
:1000B00003206128851C60280518602831206128EC
:0600C0001A2054286228FA
:02400E006A2125
:00000001FF
