:0200000058287E
:0E000600831203132F088A002E0882000800C0
:10001400831603139818102800000A288312340842
:040024009900080037
:100028008316031398169030831298008316871747
:10003800071383128C1E23281A08F0001D280800B5
:10004800831203131A08F100981C2C28181218168A
:060058007108F000080031
:10005E0003208A110A128000840AAE0A0319AF0A1D
:08006E00F003031D2F28080018
:1000760083120313B301310884000008B20032086A
:10008600003A031950283208B4000A20B30A33088C
:0C009600310784000008B2004228080076
:0E00A2000030831203138C1A0130F0000800A6
:1000B000413083120313A0004C30A1004530A20050
:1000C0005230A3005430A4004130A5002130A600D6
:1000D000A7015430A8004530A9005330AA0054307D
:1000E000AB004530AC00AD01073083169C00831295
:1000F0009F01063083169F00673099001815142061
:100100000330FB000830FC007730FD00FD0B862833
:10011000FC0B8628FB0B8628803083168600831212
:1001200086012830B1003B200A30B4000A200D308F
:10013000B4000A20512070080319C928242070082F
:10014000B0007008B4000A20B1280614C9280610AF
:10015000C9288614C9288610C9280615C928061179
:10016000C9283008793A0319A5283008753A0319C7
:10017000A7283008723A0319A9283008743A0319DD
:10018000AB283008673A0319AD283008683A0319DC
:06019000AF289A28CA28DE
:02400E004A2F37
:00000001FF
