:02000000A02836
:0E0006008312031321088A00200882000800DC
:10001400831203132908A5002A08A600A701A80132
:060024000130A2000800FB
:10002A00831203132230FC00F801F901FA01FB01E3
:10003A00FC0303194B280310FB0CFA0CF90CF80CFF
:10004A00F30CF20CF10CF00C031C1D28FC03031931
:10005A003D287408F80775080318750FF90776081C
:10006A000318760FFA0777080318770FFB0721287A
:10007A007408F80775080318750FF9077608031846
:0E008A00760FFA0777080318770FFB070800B8
:1000980003208A110A128000840AA00A0319A10AFF
:0800A800F003031D4C280800C1
:1000B000831203132208031D62280130A9000030B7
:1000C000AA000A202508F0002608F1002708F200FF
:1000D0002808F3006D30F4004E30F500C630F6000D
:1000E0004130F70015203930F5003030F600F701C7
:1000F000F8017008F50771080318710FF607720808
:100100000318720FF70773080318730FF8077708BF
:10011000F0007808F1000030F81BFF30F200F30027
:10012000FF30F0057F30F1050030F205F30570086F
:10013000A5007108A6007208A7007308A8000800AF
:100140000730831203139F00033083168500860156
:10015000033083128500860158207008A3007108BF
:10016000A4007018B5288511B62885158519BA28F8
:100170000515BB280511851DCB288518C0288511BC
:100180005B30FC00E730FD00FD0BC428FC0BC428ED
:1001900000000000BB28051DDB280518D02805112C
:1001A0005B30FC00E730FD00FD0BD428FC0BD428AD
:1001B00000000000CB280330FB008A30FC005530E3
:1001C000FD00FD0BE128FC0BE128FB0BE128000002
:0601D0000000AC28EA2843
:02400E006A2125
:00000001FF
