:02000000722B61
:1000060083120313F801F9011030FC00710DF80D8D
:10001600F90D7408F8027508031C750FF902031828
:100026001B287408F80775080318750FF9070310DD
:0A003600F00DF10DFC0B0928080085
:100040007408F8027508031C750FF9027608031C82
:10005000760FFA027708031C770FFB02F30D0730C7
:10006000FC00730DF80DF90DFA0DFB0D7408731CEF
:100070004728F8027508031C750FF9027608031C5F
:10008000760FFA027708031C770FFB025428F80753
:1000900075080318750FF90776080318760FFA0725
:1000A00077080318770FFB07F30DFC0B3128720D4F
:1000B000F80DF90DFA0DFB0D7408731C6D28F8028C
:1000C0007508031C750FF9027608031C760FFA02F7
:1000D0007708031C770FFB027A28F80775080318C6
:1000E000750FF90776080318760FFA0777080318D3
:1000F000770FFB07F20D0730FC00720DF80DF90DBC
:10010000FA0DFB0D7408721C9328F8027508031C85
:10011000750FF9027608031C760FFA027708031CA4
:10012000770FFB02A028F80775080318750FF90769
:1001300076080318760FFA0777080318770FFB077E
:10014000F20DFC0B7D28710DF80DF90DFA0DFB0D6C
:100150007408721CB928F8027508031C750FF9029F
:100160007608031C760FFA027708031C770FFB0250
:10017000C628F80775080318750FF90776080318DD
:10018000760FFA0777080318770FFB07F10D073092
:10019000FC00710DF80DF90DFA0DFB0D7408711CC2
:1001A000DF28F8027508031C750FF9027608031C96
:1001B000760FFA027708031C770FFB02EC28F8078A
:1001C00075080318750FF90776080318760FFA07F4
:1001D00077080318770FFB07F10DFC0BC928700D8A
:1001E000F80DF90DFA0DFB0D7408711C0529F802C4
:1001F0007508031C750FF9027608031C760FFA02C6
:100200007708031C770FFB021229F80775080318FB
:10021000750FF90776080318760FFA0777080318A1
:10022000770FFB07F00D0730FC00700DF80DF90D8E
:10023000FA0DFB0D7408701C2B29F8027508031CBD
:10024000750FF9027608031C760FFA027708031C73
:10025000770FFB023829F80775080318750FF9079F
:1002600076080318760FFA0777080318770FFB074D
:10027000F00DFC0B152970184B297408F807750848
:100280000318750FF90776080318760FFA07770831
:080290000318770FFB070800BB
:1002980083120313D1010530510203185A2951085A
:1002A8005007840020308000D10A4F295108500798
:1002B80084008001D10351085007D2000A30F400AD
:1002C800F5014E08F0004F08F10003207808F0000F
:1002D8007908F1003030F007520884007008800077
:1002E8000A30F400F5014E08F0004F08F100032031
:1002F8007008CE007108CF0000307106031D8629F2
:1003080000307006031D89298B29D1035F29080055
:10031800FB09FA09F909F809F80A0319F90A03198E
:08032800FA0A0319FB0A0800A0
:0E033000831203133C088A003B088200080079
:0E033E001D3083120313FD00FD0BA3290800E0
:10034C00831603139818AC290000A62983124E08B3
:04035C0099000800FC
:10036000831203139F01C0309F043009F00070080E
:1003700083169F051F179F1783124508F000F00D85
:100380007010F00D7010F00D701070089F041F14A5
:100390009F211F151F1DCE290000CA291F101E08EE
:1003A000F100F00183161E08F0040030F10408008B
:1003B00083160313981690308312980083168717BC
:1003C000071383128C1EE7291A08F000E1290800A0
:1003D000831203137408003A031D032A7508003AB8
:1003E000031D032A7608003A031D032A7708003A02
:1003F000031D032AFF30F000FF30F100FF30F20050
:100400007F30F3009C2A83120313FC01F71BFC0AC4
:10041000FD01FB01FA01F901F8017308720471048E
:1004200070040319972A73087706A000A01BFD0922
:10043000F71F252AF409F509F609F709F40A031943
:10044000F50A0319F60A0319F70AF31F322AF0090D
:10045000F109F209F309F00A0319F10A0319F20A82
:100460000319F30A73087704A000A01B532A202065
:10047000FC1B702AFD1F972AF009F109F209F30904
:10048000F00A0319F10A0319F20A0319F30AF80929
:10049000F909FA09FB09F80A0319F90A0319FA0A12
:1004A0000319FB0A972AF71F6A2AF31B642A7308A9
:1004B000FB007208FA007108F9007008F800F301F7
:1004C000F201F101F0013A2AF301F201F101F00128
:1004D000F00A0034F309F209F109F009FC17372A90
:1004E000F80A0319F90A0319FA0A0319FB0A74082E
:1004F0007802031D3A2A75087902031D3A2A760804
:100500007A02031D3A2A77087B02031D3A2AFB016F
:10051000FA01F901F801F00A0319F10A0319F20AC4
:100520000319F30AF31F3A2AA0012016FF34A00191
:0A0530007C1C9B2A8C21003E080071
:10053A00831203131A08F100981CA52A1812181618
:06054A007108F00008003A
:1005500098218A110A128000840ABB0A0319BC0A76
:08056000F003031DA82A0800A6
:1005680083120313CA01CB014508CC004608CD000D
:1005780080304606F00080307002031DC52A003026
:1005880045020318D32A0130CA000030CB004508C1
:10059800003CCC004608031C013ECD01CD024C08AE
:1005A800CE004D08CF004708D0004C210630C800C7
:1005B8000030C9004908003C031DE42A4808003CF3
:1005C8000318FF2A48084707F20001304802F000E4
:1005D8000030031C013E4902F100700847078400FF
:1005E8000008F00072088400700880000130C8021A
:1005F800031CC903DE2A47088400203080004A080B
:100608004B0403191D2BC801C9014808470784007A
:100618000008203A031D142BC80A0319C90A092B1C
:100628000130C802031CC9034808470784002D305D
:040638008000080036
:10063C00831203132230FC00F801F901FA01FB01CB
:10064C00FC030319542B0310FB0CFA0CF90CF80CDB
:10065C00F30CF20CF10CF00C031C262BFC0303190D
:10066C00462B7408F80775080318750FF9077608F8
:10067C000318760FFA0777080318770FFB072A2B56
:10068C007408F80775080318750FF907760803182E
:0E069C00760FFA0777080318770FFB070800A0
:0E06AA000030831203138C1A0130F000080098
:1006B80083120313C701450884000008C6004608D2
:1006C800003A0319712B4608CE00A621C70A47082D
:0C06D800450784000008C600632B0800E2
:1006E40042240730831603139C00013083129F00B9
:1006F4000E3083169F00673099001815D8210330F7
:10070400FB000830FC007730FD00FD0B872BFC0B51
:10071400872BFB0B872B8030831686008312860180
:10072400013083168700831287013130C5005C23B2
:100734000A30CE00A6210D30CE00A6215523700824
:100744000319CF2B9D227008C4007008CE00A62187
:10075400B72B0614CF2B0610CF2B8614CF2B861065
:10076400CF2B0615CF2B0611CF2B4408793A03194A
:10077400AB2B4408753A0319AD2B4408723A03199C
:10078400AF2B4408743A0319B12B4408673A031990
:10079400B32B4408683A0319B52B861F212CC501D5
:1007A400B02170088312B7007108B800B901BA010A
:1007B4003708F0003808F1003908F2003A08F3006D
:1007C400F430F4000130F500F601F7011E2370083F
:1007D400B7007108B8007208B9007308BA00FF3096
:1007E400F4000330F500F601F701E8217008B700C2
:1007F4007108B8007208B9007308BA007008C5001F
:100804007108C6003D30C700B4223D30C5005C23EA
:100814002130C5005C230A30CE00A6210D30CE0065
:10082400A6210B30FB002630FC005D30FD00FD0BE3
:10083400192CFC0B192CFB0B192C00000000A02B0D
:02084400222C64
:10088400213084001A3083120313F0002830BB0097
:080894000430BC00A82208009A
:100850002034673472346134753473342034633433
:0E08600065346C347334693475347334003489
:02086E000F3445
:0C087000543445345334543445340034BF
:08087C000034003400340034A4
:02400E004A2F37
:00000001FF
