:02000000722B61
:1000060083120313F801F9011030FC00710DF80D8D
:10001600F90D7408F8027508031C750FF902031828
:100026001B287408F80775080318750FF9070310DD
:0A003600F00DF10DFC0B0928080085
:100040007408F8027508031C750FF9027608031C82
:10005000760FFA027708031C770FFB02F30D0730C7
:10006000FC00730DF80DF90DFA0DFB0D7408731CEF
:100070004728F8027508031C750FF9027608031C5F
:10008000760FFA027708031C770FFB025428F80753
:1000900075080318750FF90776080318760FFA0725
:1000A00077080318770FFB07F30DFC0B3128720D4F
:1000B000F80DF90DFA0DFB0D7408731C6D28F8028C
:1000C0007508031C750FF9027608031C760FFA02F7
:1000D0007708031C770FFB027A28F80775080318C6
:1000E000750FF90776080318760FFA0777080318D3
:1000F000770FFB07F20D0730FC00720DF80DF90DBC
:10010000FA0DFB0D7408721C9328F8027508031C85
:10011000750FF9027608031C760FFA027708031CA4
:10012000770FFB02A028F80775080318750FF90769
:1001300076080318760FFA0777080318770FFB077E
:10014000F20DFC0B7D28710DF80DF90DFA0DFB0D6C
:100150007408721CB928F8027508031C750FF9029F
:100160007608031C760FFA027708031C770FFB0250
:10017000C628F80775080318750FF90776080318DD
:10018000760FFA0777080318770FFB07F10D073092
:10019000FC00710DF80DF90DFA0DFB0D7408711CC2
:1001A000DF28F8027508031C750FF9027608031C96
:1001B000760FFA027708031C770FFB02EC28F8078A
:1001C00075080318750FF90776080318760FFA07F4
:1001D00077080318770FFB07F10DFC0BC928700D8A
:1001E000F80DF90DFA0DFB0D7408711C0529F802C4
:1001F0007508031C750FF9027608031C760FFA02C6
:100200007708031C770FFB021229F80775080318FB
:10021000750FF90776080318760FFA0777080318A1
:10022000770FFB07F00D0730FC00700DF80DF90D8E
:10023000FA0DFB0D7408701C2B29F8027508031CBD
:10024000750FF9027608031C760FFA027708031C73
:10025000770FFB023829F80775080318750FF9079F
:1002600076080318760FFA0777080318770FFB074D
:10027000F00DFC0B152970184B297408F807750848
:100280000318750FF90776080318760FFA07770831
:080290000318770FFB070800BB
:1002980083120313CB0105304B0203185A294B086C
:1002A8004A07840020308000CB0A4F294B084A07B0
:1002B80084008001CB034B084A07CC000A30F400C5
:1002C800F5014808F0004908F10003207808F0001B
:1002D8007908F1003030F0074C088400700880007D
:1002E8000A30F400F5014808F0004908F10003203D
:1002F8007008C8007108C90000307106031D8629FE
:1003080000307006031D89298B29CB035F2908005B
:10031800FB09FA09F909F809F80A0319F90A03198E
:08032800FA0A0319FB0A0800A0
:0E0330008312031336088A0035088200080085
:0E033E001D3083120313FD00FD0BA3290800E0
:10034C00831603139818AC290000A62983124808B9
:04035C0099000800FC
:10036000831203139F01C0309F042109F00070081D
:1003700083169F051F179F1783123F08F000F00D8B
:100380007010F00D7010F00D701070089F041F14A5
:100390009F211F151F1DCE290000CA291F101E08EE
:1003A000F100F00183161E08F0040030F10408008B
:1003B00083160313981690308312980083168717BC
:1003C000071383128C1EE7291A08F000E1290800A0
:1003D000831203137408003A031D032A7508003AB8
:1003E000031D032A7608003A031D032A7708003A02
:1003F000031D032AFF30F000FF30F100FF30F20050
:100400007F30F3009C2A83120313FC01F71BFC0AC4
:10041000FD01FB01FA01F901F8017308720471048E
:1004200070040319972A73087706A000A01BFD0922
:10043000F71F252AF409F509F609F709F40A031943
:10044000F50A0319F60A0319F70AF31F322AF0090D
:10045000F109F209F309F00A0319F10A0319F20A82
:100460000319F30A73087704A000A01B532A202065
:10047000FC1B702AFD1F972AF009F109F209F30904
:10048000F00A0319F10A0319F20A0319F30AF80929
:10049000F909FA09FB09F80A0319F90A0319FA0A12
:1004A0000319FB0A972AF71F6A2AF31B642A7308A9
:1004B000FB007208FA007108F9007008F800F301F7
:1004C000F201F101F0013A2AF301F201F101F00128
:1004D000F00A0034F309F209F109F009FC17372A90
:1004E000F80A0319F90A0319FA0A0319FB0A74082E
:1004F0007802031D3A2A75087902031D3A2A760804
:100500007A02031D3A2A77087B02031D3A2AFB016F
:10051000FA01F901F801F00A0319F10A0319F20AC4
:100520000319F30AF31F3A2AA0012016FF34A00191
:0A0530007C1C9B2A8C21003E080071
:10053A00831203131A08F100981CA52A1812181618
:06054A007108F00008003A
:1005500098218A110A128000840AB50A0319B60A82
:08056000F003031DA82A0800A6
:1005680083120313C401C5013F08C6004008C70031
:1005780080304006F00080307002031DC52A00302C
:100588003F020318D32A0130C4000030C5003F08D9
:10059800003CC6004008031C013EC701C7024608CC
:1005A800C8004708C9004108CA004C210630C200EB
:1005B8000030C3004308003C031DE42A4208003C05
:1005C8000318FF2A42084107F20001304202F000F6
:1005D8000030031C013E4302F1007008410784000B
:1005E8000008F00072088400700880000130C20220
:1005F800031CC303DE2A410884002030800044081D
:10060800450403191D2BC201C30142084107840098
:100618000008203A031D142BC20A0319C30A092B28
:100628000130C202031CC3034208410784002D3075
:040638008000080036
:10063C00831203132230FC00F801F901FA01FB01CB
:10064C00FC030319542B0310FB0CFA0CF90CF80CDB
:10065C00F30CF20CF10CF00C031C262BFC0303190D
:10066C00462B7408F80775080318750FF9077608F8
:10067C000318760FFA0777080318770FFB072A2B56
:10068C007408F80775080318750FF907760803182E
:0E069C00760FFA0777080318770FFB070800A0
:0E06AA000030831203138C1A0130F000080098
:1006B80083120313C1013F0884000008C0004008EA
:1006C800003A0319712B4008C800A621C10A410845
:0C06D8003F0784000008C000632B0800EE
:1006E40036240730831603139C00013083129F00C5
:1006F4000E3083169F008030860083128601673097
:10070400831699001815D8210330FB000830FC002B
:100714007730FD00FD0B8C2BFC0B8C2BFB0B8C2BF7
:100724002B30BF005C230A30C800A6210D30C8005E
:10073400A621552370080319CA2B9D227008BE00F8
:100744007008C800A621B22B0614CA2B0610CA2BA7
:100754008614CA2B8610CA2B0615CA2B0611CA2B5F
:100764003E08793A0319A62B3E08743A0319A82BBC
:100774003E08723A0319AA2B3E08653A0319AC2BBA
:100784003E08673A0319AE2B3E08663A0319B02BAC
:10079400861F1A2CBF01B02170088312B1007108A2
:1007A400B200B301B4013108F0003208F10033089B
:1007B400F2003408F300F430F4000130F500F601DF
:1007C400F7011E237008B1007108B2007208B3006B
:1007D4007308B400FF30F4000330F500F601F701AC
:1007E400E8217008B1007108B2007208B300730800
:1007F400B4007008BF007108C0003730C100B422D3
:100804003730BF005C232230BF005C230A30C800AD
:10081400A6210D30C800A6210330FB000830FC00DF
:100824007730FD00FD0B142CFC0B142CFB0B142C4B
:040834009B2B1B2CB3
:10086C0021308400143083120313F0002130B500C2
:08087C000430B600A8220800B8
:020842000F3471
:100844002034433465346C3473346934753473340C
:0208540000346E
:0C08560053347434613472347434003450
:080862000034003400340034BE
:02400E004A2F37
:00000001FF
