:1000000075EF01F0494E44454E5449464951554516
:100010002D53452000000A4E4F4D453A20256420BF
:100020000000EA6A0D0EE96EEF500DE0060E016E5B
:10003000006A002EFED7012EFBD77B0E006E002E2D
:10004000FED7EF2EF3D712001438F00B006E0F0E10
:100050008C1400108C6E00008C80030E006E002E3D
:10006000FED78C9012008350006E00380F0B016E8B
:1000700012000F0E9514F009956E8C8400008C8090
:100080000000F1DF01C014F08C9000008C8000D0E3
:1000900000D00000E8DF01C013F08C900F0E951423
:1000A000956E1438006EF00E001600501310016E9D
:1000B0005FEF00F09590959295948C92DAD701C0FD
:1000C00013F001BEFBD78C9211B08C8200008C948F
:1000D00000008C901238136E0F0E131613C014F01C
:1000E000B3DF12500F0B136E146EAEDF1200280E2A
:1000F000076E0C0E086E010E096E060E0A6E8C90CD
:100100008C928C940F0E9514956E95909592959473
:100110000F0E0D6E86DF010E066E0650030808E313
:10012000030E146E91DF050E0D6E7BDF062AF5D7E8
:10013000020E146E89DF050E0D6E73DF066A06501F
:1001400003080DE3036A0650070FE96E000E032053
:10015000EA6EEFCF12F0116AADDF062AF0D780EF1A
:1001600001F00E2C01D003D0400E0F6E01D00F6AAB
:10017000010E0D5C0F260F508009106E116A126E71
:1001800099DF12000C50070A07E00B0A0AE0060A82
:1001900010E0020A14E018D0010E0D6E0E6EE1DFC1
:1001A00018D0116A010E126E85DF020E0D6E39DF56
:1001B00010D0010E0D6E020E0E6ED3DF0AD0116A42
:1001C000100E126E77DF05D0010E116E0CC012F00A
:1001D00071DF12000900F5520CE0F6CF06F0F7CF00
:1001E00007F0F5CF0CF0CEDF06C0F6FF07C0F7FF33
:1001F000F1D785EF01F00900F6CF07F0F7CF08F04F
:10020000F5CF0CF0BFDF07C0F6FF08C0F7FF062EE2
:10021000F2D78FEF01F00D50016A0C5C03E20CC0C5
:1002200000F00CD0006A080E0E6E0C3600360D5031
:10023000005CD8B0006E01360E2EF7D71200200EEB
:1002400007A8300E086E06C000F006AE08D0001EEB
:10025000002A00C006F02D0E086E078E07800150A0
:1002600006C00CF0640E0D6ED6DF00C006F0300E36
:100270000124096E06C00CF00A0E0D6ECCDF300EA4
:1002800000240B6E300E01240A6E08C000F0300E00
:10029000095C04E0078207BE078412D008C009F099
:1002A000200E086E300E0A5C04E0078007BE07824D
:1002B00007D0D8A4078004E109C00AF0200E096E17
:1002C00007B405D007B206D007B007D009D008C0E0
:1002D0000CF058DF09C00CF055DF0AC00CF052DFFB
:1002E0000BC00CF04FDF94EF01F0F86AD09E056A66
:1002F000046AC150C00B0F09C16E070EB46EF7D669
:10030000040EF66E000EF76E65D7640E0D6E89DE74
:10031000160EF66E000EF76E070E066E6CD7190EEF
:10032000066E180E076E8BD7200E0C6E2BDF640E38
:080330000D6E77DEE5D7030036
:020000040030CA
:0E0000003FCC261E0007A1000FC00FE00F40EE
:00000001FF
;PIC18F4550
;CRC=BD89  CREATED="17-jul-19 15:42"
