:1000000006EF01F0016A026A006A036A1D50D8A473
:100010000EEF00F01C50D8B42BEF00F0100E1E6E47
:10002000D8901A361B36003603361D50035CD8A410
:100030001CEF00F01C50005CD8A026EF00F01C5014
:10004000005ED8A003061D50035ED880013602363C
:100050001E2E10EF00F012001A50070B006E1A301F
:10006000016E013201321F0E011601501C24E96E8F
:10007000000E1D20EA6E016A012A002A01D0013615
:10008000002EFDD71B5203E00150EF1203D0011EDA
:100090000150EF161200EA6A1A0EE96EEF500EE0F8
:1000A000010E016E006A002EFED7012EFBD74A0E0C
:1000B000006E002EFED700D0EF2EF2D788EF00F0B2
:1000C0008996929689989298899A929A899492940C
:1000D00018C01AF0010E1B6E0F0E1D6E890E1C6EDD
:1000E000BBDF18C01AF01B6A0F0E1D6E920E1C6E3D
:1000F000B3DF036A1950040FE96E000E0320EA6EA5
:10010000EFCF1AF0956A1AC08CFF190E1A6EC3D77A
:10011000120013C01BF012C01AF0030E1D6EE80E81
:100120001C6E70DF01C017F013C01BF012C01AF074
:10013000030E1D6EE80E1C6E65DF00C018F003C0D4
:1001400019F003C01BF000C01AF01D6A640E1C6E8B
:1001500059DF01C016F013C01BF012C01AF0030ED5
:100160001D6EE80E1C6E4EDF00C018F003C019F0C3
:1001700003C01BF000C01AF01D6A640E1C6E42DF43
:1001800000C018F003C019F003C01BF000C01AF043
:100190001D6A0A0E1C6E36DF01C015F013C01BF07D
:1001A00012C01AF0030E1D6EE80E1C6E2BDF00C08D
:1001B00018F003C019F003C01BF000C01AF01D6A4C
:1001C000640E1C6E1FDF00C018F003C019F003C0DE
:1001D0001BF000C01AF01D6A0A0E1C6E13DF00C06F
:1001E00014F0020E186E17C019F06ADF030E186EB5
:1001F00016C019F065DF040E186E15C019F060DF27
:10020000050E186E14C019F05BDF1200F86AD09E5C
:100210000F6A0E6A106A116AC150C00B0F09C16ED5
:10022000070EB46E3F0E046E060E056E5B0E066E74
:100230004F0E076E660E086E6D0E096E7C0E0A6E0E
:10024000070E0B6E7F0E0C6E670E0D6E105238E1AE
:10025000938081B011D00E5202E10F5204E00E5093
:10026000D8B40F060E06938081B006D00FC013F0ED
:100270000EC012F04EDFF7D7938281B213D00F5029
:10028000270807E303E10E500E0803E30E2AD8B453
:100290000F2A938281B206D00FC013F00EC012F065
:1002A00038DFF7D7938481B40BD0010E106E93849E
:1002B00081B406D00FC013F00EC012F02ADFF7D7BA
:1002C000102C0FD00E5202E10F520AE0112A1150E9
:1002D0000A0805E10E50D8B40F060E06116A01D0C7
:1002E000106A0FC013F00EC012F013DFAFD7030077
:020000040030CA
:0E0000003FC0261E0007A1000FC00FE00F40FA
:00000001FF
;PIC18F4550
;CRC=A8B2  CREATED="17-jul-19 11:26"
