:1000000092EF01F0F76A140FF66E000EF722090066
:10001000F5501200280C01060C5445434C41533A4C
:100020000A00EA6A1D0EE96EEF500DE0060E016E41
:10003000006A002EFED7012EFBD77B0E006E002E2D
:10004000FED7EF2EF3D7120024B002D08C9801D047
:100050008C88959824B202D08C9A01D08C8A959A7B
:1000600024B402D08C9C01D08C8C959C24B602D0F8
:100070008C9E01D08C8E959E000096928D82030EF0
:10008000006E002EFED796928D92120096948D945B
:10009000630E006E002EFED700D0215203E096942E
:1000A0008D8402D096948D94000096928D92223881
:1000B000236E0F0E231623C024F0C6DF22500F0B31
:1000C000236E246EC1DF120096948D9496928D92C9
:1000D0000F0E1D6EA6DF1A6A1A50020808E3030EFF
:1000E000246EB2DF050E1D6E9CDF1A2AF5D7020EB4
:1000F000246EAADF1A6A1A5003080CE3036A1A5026
:1001000081DF1B6E216A226EC1DF050E1D6E89DF45
:100110001A2AF1D7C3EF01F01E2C01D003D0400EF4
:100120001F6E01D01F6A010E1D5C1F261F50800923
:10013000206E216A226EAADFBEEF00F01C500C0A6E
:1001400005E0060A0BE0020A0FE013D0216A010E57
:10015000226E9CDF020E1D6E64DF10D0010E1D6E3C
:10016000020E1E6ED9D70AD0216A100E226E8EDFC3
:1001700005D0010E216E1CC022F088DF120009009C
:10018000F5520CE0F6CF1AF0F7CF1BF0F5CF1CF0CC
:10019000D5DF1AC0F6FF1BC0F7FFF1D7C8EF01F09B
:1001A0001E50070B006E1E30016E013201321F0E11
:1001B000011601502024E96E000E2120EA6E016A2A
:1001C000012A002A01D00136002EFDD71F5203E07C
:1001D0000150EF1203D0011E0150EF1612001E5005
:1001E000070B006E1E30016E013201321F0E011628
:1001F00001501F24E96E000E2020EA6EEFCF01F0BF
:10020000002A01D00132002EFDD7010E0116120086
:100210002D0E1A6E1B6A1B50020869E3036A1B50FD
:10022000140FE96E000E0320EA6EEFCF1DF01DC023
:100230001EF01F6A0F0E216E890E206EB1DF1DC0E9
:100240001EF01F6A0F0E216E920E206EA9DF1C6A2F
:100250001C50030830E3036A1C50100FE96E000EB7
:100260000320EA6EEFCF1DF01DC01EF0010E1F6EC1
:100270000F0E216E920E206E93DF1DC01EF00F0E2A
:10028000206E800E1F6EABDF01B013D01C50030D2B
:10029000F3501E6A1D6E036A1B501D24016E1E5012
:1002A00003220150040FE96E000E0320EA6EEFCF27
:1002B0001AF01C2ACDD7036A1B50140FE96E000EEA
:1002C0000320EA6EEFCF1DF01DC01EF0010E1F6E61
:1002D0000F0E216E890E206E63DF1DC01EF01F6A97
:1002E0000F0E216E920E206E5BDF1B2A94D71AC070
:1002F00001F0CCEF01F013C01EF0010E1F6E0F0EC7
:10030000216E920E206E4CDF13C01EF00F0E206E79
:10031000800E1F6E64DF01B003D00C0E1C6E0EDF6A
:10032000DBEF01F0F86AD09E186A176AC150C00B63
:100330000F09C16E070EB46E310E046E320E056EDB
:10034000330E066E340E076E350E086E360E096ECD
:10035000370E0A6E380E0B6E390E0C6E2A0E0D6EAD
:10036000300E0E6E230E0F6E1B0E106E1A0E116ED7
:10037000190E126E180E136E080E146E090E156EFD
:100380000A0E166EA1D6180EF66E000EF76EF7D690
:10039000640E1D6E46DE3CD701C019F019502D08C1
:1003A00006E019C01CF0CADEC80E1D6E3ADE1950F8
:1003B000230806E1A0D701C01AF001C01CF0BEDE80
:0403C000EAD7030075
:020000040030CA
:0E0000003FCC261E0087A1000FC00FE00F406E
:00000001FF
;PIC18F4550
;CRC=514A  CREATED="19-jul-19 14:14"
