:1000000000308A0053280000FF00030E8301A10086
:100010007F08A0000A08A7008A01A00E0408A20019
:100020007708A3007808A4007908A5007A08A6003C
:10003000831383128B1E1E280B192F28220884007D
:100040002308F7002408F8002508F9002608FA001C
:1000500027088A00210E8300FF0E7F0E09000B1176
:1000600028080A3C031D3A288316861002308312A2
:100070008606A801A80A0B118A111E282A308400BE
:1000800083130008031952280130F800F701F70B19
:100090004728F80B46284A30F700F70B4D28502820
:1000A000800B44286B2803081F398300A801073000
:1000B0009F008313C0308B048B1683160108C03950
:1000C0000738810006100130831286060430A9002B
:1000D000FA30AA003E28A90B68288316622863001C
:02400E00613F10
:00000001FF
;PIC16F628A
;CRC=BF47  CREATED="09-jun-18 19:38"
