:1000000026EF01F0F76A140FF66E000EF7220900D2
:10001000F5501200280C01060C4D4F444F20303A89
:100020000A4D414E55414C200A000C4D4F444F2083
:10003000313A0A42555A5A45522041544956414490
:100040004F200A000C4D4F444F20323A0A434F4F85
:100050004C4552204154495641444F200A00EA6A17
:100060000B0EE96EEF500DE0060E016E006A002ED9
:10007000FED7012EFBD77B0E006E002EFED7EF2E93
:10008000F3D7120012B002D08C9801D08C889598CA
:1000900012B202D08C9A01D08C8A959A12B402D0F6
:1000A0008C9C01D08C8C959C12B602D08C9E01D079
:1000B0008C8E959E000096928D82030E006E002E0F
:1000C000FED796928D92120096948D94630E006ED8
:1000D000002EFED700D00F5203E096948D8402D0FC
:1000E00096948D94000096928D921038116E0F0E9A
:1000F000111611C012F0C6DF10500F0B116E126EE8
:10010000C1DF120096948D9496928D920F0E0B6E15
:10011000A6DF076A0750020808E3030E126EB2DF7B
:10012000050E0B6E9CDF072AF5D7020E126EAADFB2
:10013000076A075003080CE3036A075063DF086E81
:100140000F6A106EC1DF050E0B6E89DF072AF1D72B
:1001500032EF01F00C2C01D003D0400E0D6E01D017
:100160000D6A010E0B5C0D260D5080090E6E0F6A94
:10017000106EAADFDCEF00F00A500C0A05E0060A58
:100180000BE0020A0FE013D00F6A010E106E9CDF25
:10019000020E0B6E64DF10D0010E0B6E020E0C6EA1
:1001A000D9D70AD00F6A100E106E8EDF05D0010E5F
:1001B0000F6E0AC010F088DFE8EF00F00900F5527A
:1001C0000CE0F6CF08F0F7CF09F0F5CF0AF0D4D75E
:1001D00008C0F6FF09C0F7FFF1D712000750000A68
:1001E00005E0010A13E0030A21E02FD08A9A939ACE
:1001F0008A9C939C8A8E939E8B8294928B949494E7
:10020000180EF66E000EF76ED9DF1FD08A9A939AF9
:100210008A8C939C8A8E939E8B9294928B949494C6
:100220002A0EF66E000EF76EC9DF0FD08A8A939AF7
:100230008A8C939C8A8E939E8B8294928B849494C6
:10024000440EF66E000EF76EB9DF1200F86AD09E0B
:10025000046A066A056AC150C00B0F09C16E070E19
:10026000B46E50D704C007F0B9DF938081B009D0D5
:10027000045201E0040604C007F0B0DF938081A0BF
:10028000FDD7938281B20AD00450010801E3042A09
:1002900004C007F0A3DF938281A2FDD7E6D7030055
:020000040030CA
:0E0000003FCC261E0087A1000FC00FE00F406E
:00000001FF
;PIC18F4550
;CRC=EE43  CREATED="19-jul-19 09:25"
