:1000000000308A000428000003081F3983000730ED
:100010009F008313A101210883169B009C131C14CD
:100020001A088312A200A208031D2C280B08F7004F
:100030008B13210883169B0082309A009C131C1599
:1000400055309D00AA309D009C149C1825281C1139
:10005000770883128B04462801302202A3000B0884
:10006000F7008B13210883169B0083122308831645
:100070009A009C131C1555309D00AA309D009C14BD
:100080009C1840281C11770883128B048316860164
:0A0090008312220886004B2863004B
:02400E00613F10
:00000001FF
;PIC16F628A
;CRC=CC75  CREATED="14-jul-18 10:56"
